S0130000536D6172745F5363616C652E73726563C3
S11300000C947A040C9497040C9497040C9497041D
S11300100C9497040C9497040C9497040C949704F0
S11300200C9497040C9497040C9497040C949704E0
S11300300C9497040C94A10D0C9497040C949704BD
S11300400C9497040C9497040C9497040C949704C0
S11300500C9497040C9497040C9497040C949704B0
S11300600C9497040C94970400407A10F35A00A05F
S1130070724E18090010A5D4E80000E8764817006D
S113008000E40B54020000CA9A3B000000E1F505AD
S1130090000080969800000040420F000000A086F7
S11300A001000000102700000000E8030000000029
S11300B06400000000000A000000000001000000CD
S11300C000002C76D888DC674F0823DFC1DFAE59E7
S11300D0E1B1B796E5E3E453C63AE651997696E87A
S11300E0E6C28426EB898C9B62ED407C6FFCEFBCFE
S11300F09C9F40F2BAA56FA5F490055A2AF75C9329
S11301006B6CF9676DC11BFCE0E40D47FEF520E65E
S1130110B500D0ED902E0300943577050080841E41
S1130120080000204E0A000000C80C333333330F9C
S1130130986E12831141EF8D2114893BE65516CF39
S1130140FEE6DB18D1844B381BF77C1D901DA4BB45
S1130150E424203284725E228100C9F124ECA1E5FA
S11301603D2702046901207E1600000000050001FD
S11301700000020D0602F4040005040601F4070061
S11301800A0C0A00F5160009100A01F32800100DE4
S11301901001F442000B0D0C01F45400020404019C
S11301A0F4550004110601F45E0004110601F4671D
S11301B00005050701F46B0006080B03F971000242
S11301C004050200720004010601FC73000201052B
S11301D001007400050D0500F47D00080D0A01F40A
S11301E08A00040D0A03F49100090D0A01F4A00029
S11301F0080D0A01F4AD00070D0A02F4B900090D57
S11302000A01F4C800090D0A01F4D700080D0A0018
S1130210F4E400090D0A01F4F300080D0A01F400E6
S113022001020A0501F70301030C0501F80801099D
S1130230090B01F8130109040B01FB180109090B4F
S113024001F82301090D0A01F4320111101201F41D
S113025054010C0D0C00F468010B0D0C01F47A012F
S11302600B0D0D01F48C010B0D0D01F49E01090D14
S11302700B01F4AD01080D0B01F4BA010C0D0E01D4
S1130280F4CE010B0D0D01F4E001020D0502F4E4BE
S113029001070D0A01F4F0010B0D0C01F402020830
S11302A00D0A01F40F020D0D0F01F425020B0D0DC3
S11302B001F437020D0D0E01F44D020A0D0C01F488
S11302C05E020D0E0E01F475020C0D0D01F489028F
S11302D00A0D0C01F49A02090D0B01F4A9020B0D8D
S11302E00D01F4BB020B0D0C00F4CD02110D110035
S11302F0F4E9020C0D0C00F4FD020C0D0C00F411D9
S1130300030A0D0B01F4220303110501F42903056B
S11303100D0500F4320303110500F439030707083F
S113032001F440030A010A0003420304030500F434
S11303304403090A0A01F75003090D0A01F45F0393
S1130340080A0901F76903080D0A01F47603080A8B
S11303500A01F78003040D0501F48703080E0A015E
S1130360F79503080D0A01F4A203020D0401F4A693
S11303700304110400F4AF03090D0901F4BE0302E0
S11303800D0401F4C2030D0A0F01F7D303080A0A8E
S113039001F7DD03080A0A01F7E703090D0A01F76B
S11303A0F603080D0A01F70304050A0601F70A0417
S11303B0080A0901F71404040C0501F51A04080AD3
S11303C00A01F72404090A0900F730040D0A0D0094
S11303D0F74104080A0900F74B04090E0900F75B0A
S11303E004070A0901F7640404110601F46D040208
S11303F0110402F4720404110601F47B04070309D6
S113040001F9FFFFF8C0DEF72009864191FF1304CC
S1130410C320C8FF89826190101F14DA3D1E8340F7
S1130420781708F47A3533F040203810EC20C620D1
S1130430C640C6406C803900013C02770263046305
S11304400477083C0E0660CC1981E0180F0336C20D
S1130450D8730631E3C4FE13266CCCCCC4662310D7
S11304608C4663333332664C80257EA50030C33F0F
S113047030C30CD6F0C00844211084421108003C5B
S11304806642C3C3C3C3C3C3C342663C113F3333D1
S11304903333303E31B07830181C1C1C1818100847
S11304A007F83C66C3C303061C0703C3C3663C0CBE
S11304B0187162C9A346FE183060C07F2010080876
S11304C007F38C030180F06C63E01E3198780C060E
S11304D0F38D83C1E0D06C63E0FF030206040C08D3
S11304E01818181030303E31B0783C1B18F8C6C1CB
S11304F0E0F06C63E03C66C2C3C3C3673B0303C262
S1130500663CC00030C0000064A00081C78E0C07A8
S113051080700E0180FF80001FF000700E01C01873
S11305203871C080003E31B0783018183818180C73
S11305300000018003F0060E06018600661DBB3133
S1130540CF18C79863CC31E611B399CCF786000174
S1130550800070400FE00600F00F009019819810A1
S1130560830C3FC204606606C030FF183303606C1E
S11305700D833FC606C0780F01E06FF81F8619810E
S1130580A03C0180300600C0680D831861F0FF189C
S11305903303603C0780F01E03C0780F0360CFF084
S11305A0FFE030180C0603FD80C06030180FF8FF20
S11305B0C0C0C0C0C0FEC0C0C0C0C0C00F830E60F9
S11305C06603C00C00C1FC03C0360360730F0F1038
S11305D0C0780F01E03C0780FFFE03C0780F01E004
S11305E03C06FFFFFFC0060C183060C183078F1E56
S11305F02780C0D8330C630CC1B83F0730C31863DD
S113060006606C0CC0C0C0C0C0C0C0C0C0C0C0C008
S1130610FFE03F01FC1FE0FD05EC6F637913CD9E05
S11306206CF1478E3C7180E07C0FC1E83D8798F106
S11306301E33C3786F07E07C0E0F8183180CC06CE7
S113064001E00F007803C01B01980C60C0F800FFA4
S1130650306C0F03C0F06FF300C0300C0300C00017
S11306600F8183180CC06C01E00F007803C01B01DC
S1130670986C60C0FB0008FF8C0EC06C06C06C0C4C
S1130680FF8C0EC06C06C06C06C0703F186C0F0364
S1130690C01E01F00E00F03C0D863F00FF860301F2
S11306A080C06030180C06030180C0C0780F01E0E0
S11306B03C0780F01E03C0780F01B061F0C06C0DE0
S11306C08110630C610460CC1901603C070060C1B7
S11306D08130E19870CC286626211330C8986C4C80
S11306E014340A1A0707030380818060630C30C145
S11306F0980F00E00600F019019830C60E6060C043
S1130700360630C30C1981D80F006006006006005D
S1130710600600FFC060300C060301C0603018069C
S11307200300FFC0FB6DB6DB6DB6E084108410845B
S113073010841080EDB6DB6DB6DBE03060A244D8E7
S1130740A180FFC0C6307E71B0C060F3DB0D86C7E8
S11307503DC0C060301BCE360F0783C1E0F07C6D16
S1130760E03C66C3C0C0C0C0C3663C0303033B6730
S1130770C3C3C3C3C3C3673B3C66C3C3FFC0C0C3D7
S1130780663C366F66666666603B67C3C3C3C3C3B5
S1130790C3673B0303C67CC0C0C0DEE3C3C3C3C39B
S11307A0C3C3C3C3C3FFFFC0300333333333333353
S11307B0E0C06030184C466361F0EC6231986C30F4
S11307C0FFFFFFC0DEF71CF0C7863C31E18F0C78D9
S11307D063C31E18C0DEE3C3C3C3C3C3C3C3C33CE4
S11307E066C3C3C3C3C3C3663CDE71B0783C1E0F8B
S11307F00783E36F30180C003B67C3C3C3C3C3C391
S1130800673B030303DF318C6318C6003EE3C0C0BB
S1130810E03C07C3E37E66F666666667C3C3C3C38C
S1130820C3C3C3C3C77BC1A098CC4221B0D0281C8A
S11308300C00C61E3891C4CA66D316D0A6871C38CD
S1130840C0C6004362361C181C3C266243C1219872
S1130850CC4261B0D0381C0C0603010300FE0C30FE
S1130860C1861820C1FC3666666ECE66666630FFA9
S1130870FFFFFFC0C666666737666666C0612438D8
S113088004E010021C07123732292D29252B3900C8
S1130890010310E110031D07062E2C292D2E2E37DF
S11308A03F0000021013800A298064022A04000019
S11308B0007F2B040000009F0F0180961180FFB180
S11308C003012C2DB203012C2DB306012C2D012C78
S11308D02DB40107C003A20284C101C5C2020A00EB
S11308E0C3028A2AC4028AEEC5010E20003601C85A
S11308F03A01050011241FBECFEFD8E0DEBFCDBF03
S113090012E0A0E0B1E0ECEAF1E302C005900D9240
S1130910A43CB107D9F724E0A4ECB2E001C01D92D5
S1130920AF33B207E1F70E94D80C0C94D4180C949E
S113093000001092C6021092C7021092C8021092D0
S1130940C9021899FECF10921D0310921C0328E1CE
S1130950299A00008091C6029091C702A091C80212
S1130960B091C902880F991FAA1FBB1F8093C602AA
S11309709093C702A093C802B093C902189B14C0F5
S11309800196A11DB11D8093C6029093C702A09346
S1130990C802B093C9028091C4029091C502019625
S11309A09093C5028093C40229980000215081F6D7
S11309B02091C4023091C50288E190E0821B930B20
S11309C090931D0380931C038091C6029091C702EB
S11309D0A091C802B091C902689415F8B695A7957C
S11309E0979587951694D1F7A0588093C602909353
S11309F0C702A093C802B093C90289E1299A0000F2
S1130A0029988150D9F76091C6027091C7028091EC
S1130A10C8029091C9020895CF92DF92EF92FF929B
S1130A20CF93DF93D82F882371F0C0E0C12CD12C51
S1130A3076010E949904C60ED71EE81EF91ECF5FE8
S1130A40DC13F7CF03C0C12CD12C76012D2F30E05D
S1130A5040E050E0C701B6010E943813CA01B90151
S1130A60DF91CF91FF90EF90DF90CF900895CF92D8
S1130A70DF92EF92FF9285E00E940C050E9414120F
S1130A806B017C016091CA027091CB028091CC020F
S1130A909091CD020E9416129B01AC01C701B601D0
S1130AA00E94FA10FF90EF90DF90CF9008950E947B
S1130AB037052091CE023091CF024091D00250915F
S1130AC0D1020E946C1108958038910521F481E0CF
S1130AD08093D20210C08034910521F483E0809386
S1130AE0D20209C0809721F482E08093D20203C02D
S1130AF081E08093D20229980E9499040895CF92AC
S1130B00DF92EF92FF926B017C0120E030E040E83D
S1130B105FE30E946711882344F40F2EC12CD12C6B
S1130B20F0E8EF2EFFE3FF2EF02DC092CE02D0921C
S1130B30CF02E092D002F092D102FF90EF90DF90CA
S1130B40CF9008958F929F92AF92BF92CF92DF92EF
S1130B50EF92FF920F931F934A015B0168017901A1
S1130B60219A2998209890E00E946405C501B40157
S1130B700E947F05C092CA02D092CB02E092CC02BE
S1130B80F092CD021F910F91FF90EF90DF90CF90E4
S1130B90BF90AF909F908F9008951092C50083E30B
S1130BA08093C40086E08093C20088E98093C100EA
S1130BB00895CF93DF93FC0101900020E9F731976A
S1130BC0E81BF90B1E161F0684F4DC019C012E0F92
S1130BD03F1FC6ECD0E0E0ECF0E09D91988390815B
S1130BE095FFFDCFA217B307C1F7DF91CF91089509
S1130BF0CF93DF93FC0101900020E9F73197E81BC4
S1130C00F90B1E161F0684F4DC019C012E0F3F1FF6
S1130C10C6ECD0E0E0ECF0E09D919883908195FFE4
S1130C20FDCFA217B307C1F785E191E00E94D90572
S1130C30DF91CF9108950F931F9300E010E020E817
S1130C4040EA60E080E00E94550F1F910F910895E3
S1130C50EF92FF920F931F930E941B066091C203B1
S1130C607091C3038091C4039091C50306EC13E013
S1130C7022E044E00E945A13F80101900020E9F7B1
S1130C80319780E295E2918380831282EE24EA9484
S1130C90FE2C02E022E631E046EC53E060E280E024
S1130CA00E945B106091040170910501809106011E
S1130CB09091070106EC13E022E044E00E945A13ED
S1130CC0809101018D3669F4D8010D900020E9F777
S1130CD0119786E0E8E1F1E001900D928A95E1F741
S1130CE00FC0893669F4A6ECB3E00D900020E9F753
S1130CF0119787E0EEE1F1E001900D928A95E1F71A
S1130D00EE24EA94FE2C01E022E631E045E251E0D3
S1130D1066E480E00E945B1022E631E046EC53E09A
S1130D2065E588E20E945B104AE066EC73E080911E
S1130D30D6029091D7020E94831322E631E040E369
S1130D4051E066E780E00E945B1022E631E046EC69
S1130D5053E066E78EE60E945B101F910F91FF90AF
S1130D60EF9008954F925F926F927F928F929F922D
S1130D70AF92BF92CF92DF92EF92FF920F931F93A5
S1130D80CF93DF9300D000D0CDB7DEB76B017C01E9
S1130D906093D8027093D9028093DA029093DB02B5
S1130DA020E030E040E85FE30E94C61218160CF021
S1130DB05DC08090040190900501A0900601B09060
S1130DC00701A5019401C701B6010E946711882398
S1130DD00CF04CC0409008015090090160900A0149
S1130DE070900B01A7019601C301B2010E94FA1091
S1130DF0A50194010E94CB1269837A838B839C831F
S1130E00A5019401C301B2010E94FA10A701960141
S1130E100E94CB129B01AC0169817A818B819C81F8
S1130E200E946C1120E030E048EC52E40E94CB12A6
S1130E306093C2037093C3038093C4039093C50368
S1130E408CE391E00E94D9056091C2037091C303C1
S1130E508091C4039091C50306EC13E022E044E0C2
S1130E600E945A13C8010E94F80508C01092C203D8
S1130E701092C3031092C4031092C50306EC13E04E
S1130E8024E044E0C701B6010E945A1383E491E0D0
S1130E900E94D905C8010E94F8058091D3028823D5
S1130EA0E1F100E010E028E240EA60E080E00E9426
S1130EB0550F6091C2037091C3038091C403909154
S1130EC0C50306EC13E022E044E00E945A13F80143
S1130ED001900020E9F7319780E295E291838083C5
S1130EE012828091C2039091C303A091C403B09174
S1130EF0C5038093E0029093E102A093E202B093D1
S1130F00E302EE24EA94FE2C02E022E631E046EC11
S1130F1053E060E280E00E945B100F900F900F900E
S1130F200F90DF91CF911F910F91FF90EF90DF9081
S1130F30CF90BF90AF909F908F907F906F905F9075
S1130F404F90089535990BC02FE785EB91E0215020
S1130F5080409040E1F700C0000081E0089534999A
S1130F600BC02FE785EB91E0215080409040E1F7E2
S1130F7000C0000082E0089533990BC02FE785EB91
S1130F8091E0215080409040E1F700C0000083E0F0
S1130F90089532990BC02FE785EB91E021508040F2
S1130FA09040E1F700C0000084E0089580E00895D7
S1130FB0811136C08DE0E7E6F1E0AEE1B3E00190E7
S1130FC00D928A95E1F78DE0E4E7F1E0AEE2B3E05B
S1130FD001900D928A95E1F785E0E1E8F1E0AEE356
S1130FE0B3E001900D928A95E1F781E1E6E8F1E042
S1130FF0AEE4B3E001900D928A95E1F78AE0E7E967
S1131000F1E0AEE5B3E001900D928A95E1F78FE04F
S1131010E1EAF1E0AEE6B3E001900D928A95E1F7E2
S11310200895CF92DF92EF92FF920F931F930E9445
S11310301B06609104017091050180910601909155
S1131040070106EC13E022E044E00E945A13EE2468
S1131050EA94FE2C01E022E631E040EB51E06FE03F
S113106080E00E945B1022E631E046EC53E06BE442
S113107083E20E945B100E94A207823059F020F4A0
S1131080813009F4CBC0F7CF8330D1F1843009F437
S11310907EC0F1CF0E941B06809107018F9380913F
S11310A006018F93809105018F93809104018F93A2
S11310B08AEB91E09F938F9386EC93E09F938F93B9
S11310C00E94A813EE24EA94FE2C01E022E631E00B
S11310D046EC53E06BE480E00E945B102FEF86E166
S11310E091E1215080409040E1F700C000008DB7AD
S11310F09EB708960FB6F8949EBF0FBE8DBF8EC0E4
S1131100C0900401D0900501E0900601F090070121
S113111020E030E040E85FE3C701B6010E94C61258
S1131120181684F42DEC3CEC4CE45DE3C701B601E5
S11311300E94FA10609304017093050180930601E4
S1131140909307010E941B066091040170910501B0
S1131150809106019091070106EC13E022E044E03F
S11311600E945A13EE24EA94FE2C01E022E631E0B8
S113117040EB51E06FE080E00E945B1022E631E03A
S113118046EC53E06BE483E20E945B1074CFC090A2
S11311900401D0900501E0900601F090070120E0E1
S11311A030E040EA50E4C701B6010E946711882389
S11311B084F42DEC3CEC4CE45DE3C701B6010E94E1
S11311C0FB106093040170930501809306019093D2
S11311D007010E941B066091040170910501809132
S11311E006019091070106EC13E022E044E00E941E
S11311F05A13EE24EA94FE2C01E022E631E040EB9F
S113120051E06FE080E00E945B1022E631E046ECA2
S113121053E06BE483E20E945B102DCF1F910F918A
S1131220FF90EF90DF90CF900895EF92FF920F938D
S11312300E941B06EE24EA94FE2C01E022E631E033
S11312404BEC51E06FE080E00E945B1022E631E05D
S113125048ED51E06BE480E00E945B1022E631E04F
S11312604AEE51E06FE580E00E945B100E94A20705
S11312708130C9F08230D1F70E941B06EE24EA9433
S1131280FE2C01E022E631E04BEF51E06BE480E01C
S11312900E945B102FEF86E191E121508040904045
S11312A0E1F700C000000F91FF90EF900895EF92D6
S11312B0FF920F931F93CF93DF93CDB7DEB76E9753
S11312C00FB6F894DEBF0FBECDBF0E941B0689E0A7
S11312D0EBE0F2E0DE01119601900D928A95E1F7C0
S11312E08FE0E6E2F2E0DE01509601900D928A95DD
S11312F0E1F7EE24EA94FE2C01E022E631E044E139
S113130052E06FE080E00E945B1022E631E0AE0123
S11313104F5F5F4F6BE480E00E945B1010E00E941F
S1131320A207823059F020F4813009F47AC0F7CF53
S11313308330B1F1843009F453C0F1CF0E941B060D
S1131340EE24EA94FE2C01E022E631E044E152E08E
S11313506FE080E00E945B1041E050E04C0F5D1FA5
S11313602FE0129F400D511D112422E631E06BE461
S113137080E00E945B10111104C085E2809300019B
S113138005C0113019F483E7809300018FEF96E1D3
S113139021E1815090402040E1F700C0000041C0AD
S11313A0111111500E941B06EE24EA94FE2C01E058
S11313B022E631E044E152E06FE080E00E945B10FD
S11313C022E631E041E050E04C0F5D1F8FE0189FB2
S11313D0400D511D11246BE480E00E945B109FCFEF
S11313E0111101C011E00E941B06EE24EA94FE2CA8
S11313F001E022E631E044E152E06FE080E00E9447
S11314005B1022E631E041E050E04C0F5D1F9FE0AD
S1131410199F400D511D11246BE480E00E945B1064
S11314207ECF6E960FB6F894DEBF0FBECDBFDF91B0
S1131430CF911F910F91FF90EF900895EF92FF923B
S11314400F931F93CF93DF93CDB7DEB76E970FB68D
S1131450F894DEBF0FBECDBF0E941B068FE0EFE8FD
S1131460F2E0DE01119601900D928A95E1F782E196
S1131470E5E3F2E0DE01509601900D928A95E1F7E2
S1131480EE24EA94FE2C01E022E631E047E452E047
S11314906FE080E00E945B1022E631E0AE014F5F16
S11314A05F4F6BE480E00E945B1010E00E94A20793
S11314B0823061F020F4813009F4C1C0F7CF833069
S11314C009F47CC0843009F499C0F0CF11111AC01A
S11314D00E941B06EE24EA94FE2C01E022E631E091
S11314E047E452E06FE080E00E945B1022E631E0C6
S11314F04EE452E06BE480E00E945B108DE6809342
S1131500010152C0113009F04FC00E941B06EE24A5
S1131510EA94FE2C01E022E631E047E452E06FE079
S113152080E00E945B1022E631E04BE552E06BE480
S113153080E00E945B100E94A2078230D1F40E94D6
S11315401B06EE24EA94FE2C01E022E631E049E693
S113155052E06FE080E00E945B1022E631E049E750
S113156052E06BE480E00E945B1089E68093010105
S11315701BC0813001F70E941B06EE24EA94FE2C66
S113158001E022E631E049E652E06FE080E00E94AB
S11315905B1022E631E048E852E06BE480E00E9410
S11315A05B108DE6809301012FEF86E191E12150DC
S11315B080409040E1F700C0000041C0111111507B
S11315C00E941B06EE24EA94FE2C01E022E631E0A0
S11315D047E452E06FE080E00E945B1022E631E0D5
S11315E041E050E04C0F5D1F8FE0189F400D511DEE
S11315F011246BE480E00E945B1058CF111101C0EC
S113160011E00E941B06EE24EA94FE2C01E022E67F
S113161031E047E452E06FE080E00E945B1022E694
S113162031E041E050E04C0F5D1F9FE0199F400DF9
S1131630511D11246BE480E00E945B1037CF6E963D
S11316400FB6F894DEBF0FBECDBFDF91CF911F91CF
S11316500F91FF90EF900895EF92FF920F93CF9325
S1131660C82F0E941B06EE24EA94FE2C01E022E619
S113167031E04EE952E06FE086E40E945B1080E1C5
S1131680C89FA0011124425E5C4F22E631E06BE466
S113169085E00E945B10CF910F91FF90EF90089529
S11316A0EF92FF920F930E941B064AE066EC73E0F0
S11316B08091D6029091D7020E948313EE24EA947B
S11316C0FE2C01E022E631E045EA52E06FE080E0E2
S11316D00E945B1022E631E046EC53E06BE483E2C7
S11316E00E945B100E94A207823059F020F48130DE
S11316F009F48EC0F7CF833091F1843009F45BC0D4
S1131700F1CF0E941B068091D7028F938091D6025D
S11317108F9380EB92E09F938F9386EC93E09F935B
S11317208F930E94A813EE24EA94FE2C01E022E693
S113173031E046EC53E06BE480E00E945B102FEF55
S113174086E191E1215080409040E1F700C0000023
S11317500F900F900F900F900F900F9059C08091A1
S1131760D6029091D7028230910528F00197909388
S1131770D7028093D6020E941B064AE066EC73E00F
S11317808091D6029091D7020E948313EE24EA94AA
S1131790FE2C01E022E631E045EA52E06FE080E011
S11317A00E945B1022E631E046EC53E06BE483E2F6
S11317B00E945B1097CF8091D6029091D702843F0C
S11317C021E0920728F401969093D7028093D602E1
S11317D00E941B064AE066EC73E08091D602909169
S11317E0D7020E948313EE24EA94FE2C01E022E641
S11317F031E045EA52E06FE080E00E945B1022E6AF
S113180031E046EC53E06BE483E20E945B106ACF64
S11318100F91FF90EF900895ECE7F0E080818073E2
S113182080838081808380818E60808387EE93E0D3
S11318300197F1F700C00000EAE7F0E080818064DE
S11318408083808186FDFDCF2091780030917900DE
S113185040E050E064EB7BE281E190E00E943813C9
S1131860C90108958F929F92AF92BF92EF92FF9217
S11318700F931F93CF93DF930E940C0C845E9C40C4
S1131880BC0180E090E00E94141220E030E844EDB6
S113189054E40E946C1120E030E048EC52E40E94D1
S11318A0CB120E94DE114B015C01EB014AE066ECB5
S11318B073E0C4010E9483130E941B06E6ECF3E06C
S11318C001900020E9F7319785E290E091838083CD
S11318D0EE24EA94FE2C02E022E631E046EC53E0EA
S11318E06AE282E30E945B100FEF1FEF29E144E3F9
S11318F062E382E30E94550FC132D10544F400E053
S113190018EF27E140E163E383E30E94550F81E28E
S1131910881A910881E28816910470F400EE1FEF92
S113192027E140E163E383E30E94550F27E140E1AF
S113193063E384E40E94550FC234D105A4F000EEA1
S113194017E027E140E163E383E30E94550F27E1B9
S113195040E163E384E40E94550F27E140E163E33F
S113196085E50E94550FDF91CF911F910F91FF9054
S1131970EF90BF90AF909F908F9008950E94320C8B
S11319800E94A2078093DA03909102018913F8CF91
S113199008951092800081E080936F0088E19CEFAD
S11319A0909385008093840082E080938100089561
S11319B080E895E20E94CD0587B1837487B988B128
S11319C08C6388B90E94F10D0E94560E80E00E943B
S11319D08B0E0E941B0600911001109111012091A1
S11319E012013091130140910C0150910D0160914D
S11319F00E0170910F01809114010E94A20580ECE8
S1131A0080937C00EAE7F0E085E88083808180644D
S1131A108083808186FDFDCF0E94C90C789481E08B
S1131A208093D3020E942806C1E0C093D3020E948F
S1131A30A2078093DA03909103018913F6CF1092E1
S1131A40D30280E090E00E94D8071092D40280E094
S1131A5090E00E942C0B69C00E94A2078093DA03D5
S1131A60823021F118F48130F1F05FC0833079F0D5
S1131A70843009F05AC08091D402853008F055C0F2
S1131A808F5F8093D40290E00E942C0B4EC0809113
S1131A90D402882309F449C081508093D40290E091
S1131AA00E942C0B42C0C093D5023FC08091D40247
S1131AB08230E1F028F4882349F0813079F035C090
S1131AC0843021F1D8F0853049F12FC00E94500BA9
S1131AD08091D40290E00E942C0B27C00E94110830
S1131AE08091D40290E00E942C0B1FC00E94150923
S1131AF08091D40290E00E942C0B17C00E945709D9
S1131B008091D40290E00E942C0B0FC00E941E0A08
S1131B108091D40290E00E942C0B07C00E94BE0C5E
S1131B208091D40290E00E942C0B8091D5028823EE
S1131B3009F492CF1092D5021092D4020E94280682
S1131B4074CF1F920F920FB60F9211242F933F93CD
S1131B504F935F936F937F938F939F93AF93BF93B1
S1131B60EF93FF938091DC029091DD02A091DE025D
S1131B70B091DF020196A11DB11D8093DC02909308
S1131B80DD02A093DE02B093DF028C3D9540A105F7
S1131B90B10581F48091D302882321F00E94570576
S1131BA00E94B2061092DC021092DD021092DE0254
S1131BB01092DF0288E19CEF90938500809384006B
S1131BC0FF91EF91BF91AF919F918F917F916F9111
S1131BD05F914F913F912F910F900FBE0F901F90E7
S1131BE018958CE284B980E58CBD2A9A0895CF9328
S1131BF09C012F5F3F4FFC01B491BB2309F454C0F7
S1131C0060E0C9010196F90144915E982A984EBD9D
S1131C100DB407FEFDCF2A9A2E5F3F4FFC0184913D
S1131C20782F70788F77B1F0C22FA32F815090E076
S1131C300196280F391FA901EC2FFA2F84915E9A7F
S1131C402A988EBD0DB407FEFDCF2A9A31964E1701
S1131C505F07A1F7772329F1A9014F5F5F4FF901CE
S1131C6024912F3F31F030E0121613066CF09A01E4
S1131C7018C0FFEF24E38CE0F15020408040E1F7EE
S1131C8000C000009A010DC080E090E0EFE0F7E2B0
S1131C903197F1F700C00000059682179307B4F35B
S1131CA09A016F5FB613ADCFCF9108958AB1806C5E
S1131CB08AB92A985F9A2FEF84E39CE021508040F0
S1131CC09040E1F700C000005F982FEF84E39CE0B0
S1131CD0215080409040E1F700C000005F9A2FEF50
S1131CE084E39CE0215080409040E1F700C0000074
S1131CF088EB98E00E94F70D8BEA98E00E94F70DBC
S1131D0080E898E00E94F70D80E88093E50280EA7D
S1131D108093E40208955E982A9896E39EBD0DB4DC
S1131D2007FEFDCF2A9A813039F0E8F0823009F4B9
S1131D3048C0833079F108955E9A2A9888EC8EBD64
S1131D400DB407FEFDCF2A9A80E88093E50280EA6D
S1131D508093E4028091E8028093E6028091E90294
S1131D608093E70208955E9A2A9888EA8EBD0DB49E
S1131D7007FEFDCF2A9A80EA8093E50280E88093EB
S1131D80E4028091E9028093E6028091E802809364
S1131D90E70208955E9A2A9888E08EBD0DB407FE86
S1131DA0FDCF2A9A80E88093E50280EA8093E402DA
S1131DB08091E8028093E6028091E9028093E70231
S1131DC008955E9A2A9888E68EBD0DB407FEFDCF6D
S1131DD02A9A80EA8093E50280E88093E402809165
S1131DE0E9028093E6028091E8028093E702089575
S1131DF05E982A989AE29EBD0DB407FEFDCF2A9AFA
S1131E005E9A2A981EBC0DB407FEFDCF2A9A9091C3
S1131E10E602890F5E9A2A988EBD0DB407FEFDCFA7
S1131E202A9A5E9A2A981EBC0DB407FEFDCF2A9A00
S1131E308091E602480F5E9A2A984EBD0DB407FEC3
S1131E40FDCF2A9A5E982A988BE28EBD0DB407FEC8
S1131E50FDCF2A9A5E9A2A981EBC0DB407FEFDCFC8
S1131E602A9A8091E702680F5E9A2A986EBD0DB493
S1131E7007FEFDCF2A9A5E9A2A981EBC0DB407FE6F
S1131E80FDCF2A9A8091E702280F5E9A2A982EBDE8
S1131E900DB407FEFDCF2A9A5E982A988CE28EBD77
S1131EA00DB407FEFDCF2A9A08950F931F93CF9385
S1131EB0DF93C42FD22F9091E502891708F040C018
S1131EC04091E4026417E0F52C2F30E0280F311D17
S1131ED021503109E92FF0E02E173F0714F0C92FE4
S1131EE0C81B2D2F30E0260F311D21503109E42F5E
S1131EF0F0E02E173F0714F0D42FD61B2FEF260F38
S1131F002D0F4FEF480F4C0F0E94F80E5E9A2A983F
S1131F10DD23A9F0912F20E00FC080E09EBD0DB419
S1131F2007FEFDCF0EBD0DB407FEFDCF8F5FC813B6
S1131F30F5CF2F5FD21719F0C111EFCFFACF2A9A3C
S1131F40DF91CF911F910F9108953F924F925F922D
S1131F506F927F928F929F92AF92BF92CF92DF92B5
S1131F60EF92FF920F931F93CF93DF9300D000D093
S1131F70CDB7DEB7002309F488C0F901A080B18091
S1131F80FA01C080D1809381911171C07EC01C82FE
S1131F9020E030E0852C912CFB81F11109C0C601B1
S1131FA00196F501EC0DFD1D74906C0160E86B83E6
S1131FB08B81872119F02F5F3F4F28C021153105F0
S1131FC029F1629E402D1124F7018681B401680F26
S1131FD0711D87FD7A95CB01632D689E600D1124D8
S1131FE055817C81872F90E0850F911D57FD9A952F
S1131FF0821B930B09811A81262DE42D689EE00D26
S113200011248E2F0E94550F20E030E0FB81F695BD
S1132010FB836C816F5F6C83F7018281681708F41E
S1132020BBCF21153105E9F0629E402D1124868134
S1132030850D632D869D600D11245581FC818F2FA4
S113204090E0850F911D57FD9A95821B930B098192
S11320501A81262D342D689E300D1124832F0E9461
S1132060550F5394F7018381581650F00EC0FA822D
S1132070E982602E7A01362E482E512C1B82712C57
S1132080F7018281811183CFECCF0F900F900F90D5
S11320900F90DF91CF911F910F91FF90EF90DF9000
S11320A0CF90BF90AF909F908F907F906F905F90F4
S11320B04F903F9008952F923F924F925F926F926C
S11320C07F928F929F92AF92BF92CF92DF92EF92C4
S11320D0FF920F931F93CF93DF93CDB7DEB7629731
S11320E00FB6F894DEBF0FBECDBF5A01102FFA8A87
S11320F0E98A482F880F550B588B4F87662E660F39
S1132100770847E050E0B901CE0101960E947A13A6
S113211045012F843888C12CD12C402E512C46C027
S1132120F40181914F018A3059F42F81249DC0011B
S1132130259D900D1124680E791E2F84388833C094
S11321402D81821780F19E81981768F18D3059F1A5
S113215090E0821B9109BC01660F771F660F771F01
S1132160660F771F681B790B8B819C81680F791F21
S113217047E050E0CE0108960E947A13E988FA8875
S1132180012F9E012F5F3F4FAE01485F5F4FB301A8
S1132190C1010E94A50F2C85249DC001259D900D91
S11321A01124280E391EFFEFCF1ADF0AF501019022
S11321B00020E9F73197EA19FB09CE16DF0608F487
S11321C0AFCF62960FB6F894DEBF0FBECDBFDF91DE
S11321D0CF911F910F91FF90EF90DF90CF90BF9020
S11321E0AF909F908F907F906F905F904F903F90B3
S11321F02F9008955058BB27AA270E9412110C94BF
S11322008C120E947E1238F00E94851220F039F45C
S11322109F3F19F426F40C947B120EF4E095E7FB2F
S11322200C947512E92F0E949D1258F3BA17620795
S113223073078407950720F079F4A6F50C94BF1270
S11322400EF4E0950B2EBA2FA02D0B01B9019001CD
S11322500C01CA01A0011124FF27591B99F0593F11
S113226050F4503E68F11A16F040A22F232F342F59
S11322704427585FF3CF469537952795A795F040A7
S11322805395C9F77EF41F16BA0B620B730B840BBC
S1132290BAF09150A1F0FF0FBB1F661F771F881F74
S11322A0C2F70EC0BA0F621F731F841F48F48795CC
S11322B077956795B795F7959E3F08F0B0CF9395BE
S11322C0880F08F09927EE0F9795879508950E9437
S11322D0511208F481E008950E9480110C948C122C
S11322E00E94851258F00E947E1240F029F45F3F4C
S11322F029F00C94751251110C94C0120C947B1299
S11323000E949D1268F39923B1F3552391F3951B11
S1132310550BBB27AA2762177307840738F09F5F02
S11323205F4F220F331F441FAA1FA9F335D00E2E6F
S11323303AF0E0E832D091505040E695001CCAF7DC
S11323402BD0FE2F29D0660F771F881FBB1F26179F
S113235037074807AB07B0E809F0BB0B802DBF0176
S1132360FF2793585F4F3AF09E3F510578F00C9445
S113237075120C94C0125F3FE4F3983ED4F3869533
S113238077956795B795F7959F5FC9F7880F911D66
S11323909695879597F90895E1E0660F771F881F52
S11323A0BB1F621773078407BA0720F0621B730B05
S11323B0840BBA0BEE1F88F7E09508950E94E5118F
S11323C06894B1110C94C01208950E94A51288F06B
S11323D09F5798F0B92F9927B751B0F0E1F0660FE5
S11323E0771F881F991F1AF0BA95C9F714C0B13026
S11323F091F00E94BF12B1E008950C94BF12672FB0
S1132400782F8827B85F39F0B93FCCF38695779554
S11324106795B395D9F73EF490958095709561953D
S11324207F4F8F4F9F4F0895E89409C097FB3EF468
S113243090958095709561957F4F8F4F9F4F99230D
S1132440A9F0F92F96E9BB279395F695879577958B
S11324506795B795F111F8CFFAF4BB0F11F460FF4B
S11324601BC06F5F7F4F8F4F9F4F16C0882311F0A3
S113247096E911C0772321F09EE8872F762F05C0B7
S1132480662371F096E8862F70E060E02AF09A9552
S1132490660F771F881FDAF7880F9695879597F947
S11324A00895990F0008550FAA0BE0E8FEEF1616E1
S11324B01706E807F907C0F012161306E407F50734
S11324C098F0621B730B840B950B39F40A2661F0A8
S11324D0232B242B252B21F408950A2609F4A1404B
S11324E0A6958FEF811D811D089597F99F6780E858
S11324F070E060E008959FEF80EC089500240A9452
S11325001616170618060906089500240A941216CA
S11325101306140605060895092E0394000C11F4FD
S1132520882352F0BB0F40F4BF2B11F460FF04C0AA
S11325306F5F7F4F8F4F9F4F089557FD9058440F03
S1132540551F59F05F3F71F04795880F97FB991F0E
S113255061F09F3F79F087950895121613061406CB
S1132560551FF2CF4695F1DF08C016161706180658
S1132570991FF1CF86957105610508940895E89433
S1132580BB2766277727CB0197F908950E9451123C
S113259008F48FEF08950E94DE120C948C120E94AE
S11325A07E1238F00E94851220F0952311F00C94CD
S11325B075120C947B1211240C94C0120E949D126B
S11325C070F3959FC1F3950F50E0551F629FF00182
S11325D0729FBB27F00DB11D639FAA27F00DB11D9B
S11325E0AA1F649F6627B00DA11D661F829F222724
S11325F0B00DA11D621F739FB00DA11D621F839FAB
S1132600A00D611D221F749F3327A00D611D231F80
S1132610849F600D211D822F762F6A2F11249F57CE
S113262050409AF0F1F088234AF0EE0FFF1FBB1FD1
S1132630661F771F881F91505040A9F79E3F510590
S113264080F00C9475120C94C0125F3FE4F3983E32
S1132650D4F3869577956795B795F795E7959F5F3A
S1132660C1F7FE2B880F911D9695879597F90895CC
S1132670A1E21A2EAA1BBB1BFD010DC0AA1FBB1F82
S1132680EE1FFF1FA217B307E407F50720F0A21BF4
S1132690B30BE40BF50B661F771F881F991F1A9461
S11326A069F760957095809590959B01AC01BD018B
S11326B0CF010895EF920F931F93CF93DF93E80117
S11326C047FD02C034E001C034E1042E000C550B78
S11326D057FF03C0519541955109E32E022F242F32
S11326E0AE010E94AB15CE01DF91CF911F910F91E6
S11326F0EF900895FB01DC0102C005900D9241505A
S11327005040D8F70895BB274A3031F4992322F476
S1132710BDE2909581959F4F0C948F13BB27FB01CD
S11327205527AA27880F991FAA1FA41710F0A41BC6
S113273083955051B9F7A05DAA3308F0A95DA19320
S1132740009779F7B111B1931192CB010C94F3175F
S1132750AEE0B0E0EEEAF3E10C94AB180D891E890B
S113276086E08C831A8309838FEF9FE79E838D8392
S1132770AE01475E5F4F6F89788DCE0101960E944E
S1132780CA13EF81F885E00FF11F10822E96E4E062
S11327900C94C718ABE0B0E0E0EDF3E10C949D18A5
S11327A06C017B018A01FC0117821682838181FFFF
S11327B0CCC1CE0101963C01F6019381F70193FD52
S11327C0859193FF81917F01882309F4BAC18532F1
S11327D039F493FD859193FF81917F01853229F42A
S11327E0B60190E00E940318E7CF912C212C312CE4
S11327F0FFE1F315D8F08B3279F038F4803279F0B8
S11328008332A1F4232D20611DC08D3261F0803309
S113281069F4232D216016C0832D8260382EE32DA8
S1132820E4603E2E2AC0F32DF8601DC037FC2DC095
S113283020ED280F2A3040F08E32B9F436FC81C1E5
S1132840232D2064322E19C036FE06C08AE0989EDD
S1132850200D1124922E11C0EAE02E9E200D112489
S1132860222EF32DF0623F2E08C08C3621F4832DE6
S11328708068382E02C0883641F4F70193FD8591B3
S113288093FF81917F018111B3CF982F9F7D955440
S1132890933028F40C5F1F4F9FE399830DC0833658
S11328A031F0833771F0833509F059C021C0F80144
S11328B0808189830E5F1F4F88248394912C530158
S11328C013C02801F2E04F0E511CF801A080B18022
S11328D036FE03C0692D70E002C06FEF7FEFC501C3
S11328E00E94E8174C018201F32DFF773F2E16C09A
S11328F0280122E0420E511CF801A080B18036FE6E
S113290003C0692D70E002C06FEF7FEFC5010E9424
S1132910DD174C01F32DF0683F2E820133FC1BC000
S1132920822D90E088169906B0F4B60180E290E01A
S11329300E9403182A94F4CFF50137FC859137FEE1
S113294081915F01B60190E00E94031821102A943E
S113295021E0821A91088114910471F7E8C0843649
S113296011F0893641F5F80137FE07C060817181A5
S1132970828193810C5F1F4F08C060817181072E93
S1132980000C880B990B0E5F1F4FF32DFF763F2E23
S113299097FF09C090958095709561957F4F8F4FF3
S11329A09F4FF0683F2E2AE030E0A3010E943F18B9
S11329B0882E861845C0853731F4232D2F7EB22EFC
S11329C02AE030E025C0932D997FB92E8F36C1F0CF
S11329D018F4883579F0B5C0803719F0883721F0BC
S11329E0B0C0E92FE061BE2EB4FE0DC0FB2DF46033
S11329F0BF2E09C034FE0AC0292F2660B22E06C09D
S1132A0028E030E005C020E130E002C020E132E0FF
S1132A10F801B7FE07C060817181828193810C5FE8
S1132A201F4F06C06081718180E090E00E5F1F4FF0
S1132A30A3010E943F18882E8618FB2DFF773F2E96
S1132A4036FE0DC0232D2E7FA22E891458F434FE99
S1132A500BC032FC09C0832D8E7EA82E05C0B82C75
S1132A60A32C03C0B82C01C0B92CA4FE0FC0FE01D6
S1132A70E80DF11D8081803321F49A2D997EA92ED1
S1132A8009C0A2FE06C0B394B39404C08A2D86780C
S1132A9009F0B394A3FC11C0A0FE06C0B21488F4DC
S1132AA0280C922C9B180EC0B21460F4B60180E27C
S1132AB090E00E940318B394F7CFB21418F42B18C3
S1132AC002C0982C212CA4FE10C0B60180E390E033
S1132AD00E940318A2FE17C0A1FC03C088E790E07F
S1132AE002C088E590E0B6010CC08A2D867859F0C2
S1132AF0A1FE02C08BE201C080E2A7FC8DE2B60118
S1132B0090E00E940318891438F4B60180E390E041
S1132B100E9403189A94F7CF8A94F301E80DF11DEB
S1132B208081B60190E00E9403188110F5CF222025
S1132B3009F442CEB60180E290E00E9403182A9480
S1132B40F6CFF6018681978102C08FEF9FEF2B9617
S1132B50E2E10C94B918A9E0B0E0E1EBF5E10C94E2
S1132B60A3186A01122FB02E2BE3201720F0FF24A4
S1132B70F394F00E02C02CE3F22E0F2D27E0AE01E9
S1132B804F5F5F4F0E940517BC014981842F8970F4
S1132B90813031F0E1FC06C0E0FE06C090E205C0E1
S1132BA09DE203C09BE201C090E05E2D507143FFA3
S1132BB03CC0911102C083E001C084E0811718F485
S1132BC0212F281B01C020E051110BC0F601822FD8
S1132BD030E2882319F031938150FBCFC20ED11C0F
S1132BE020E0992329F0D6019C93F60131966F01D8
S1132BF0C6010396E2FE0AC03EE4D6013C9341E4DA
S1132C0011964C93119712963C9306C03EE6F6013A
S1132C10308341E641833283FC01322F40E2332387
S1132C2009F442C041933150FACF42FF44C091119C
S1132C3002C083E001C084E0811718F4212F281B0F
S1132C4001C020E051110BC0F601822F30E288232D
S1132C5019F031938150FBCFC20ED11C20E099238F
S1132C6029F0D6019C93F60131966F01C6010396B3
S1132C70E2FE0BC039E4D6013C933EE411963C934A
S1132C80119736E412963C9307C039E6F601308377
S1132C903EE6318336E63283FC01322F40E23323B1
S1132CA019F041933150FBCFFC01E20FF11D10826A
S1132CB08EEF9FEFA6C021E030E0911102C020E02A
S1132CC030E0161617061CF4FB01319602C0E1E051
S1132CD0F0E02E0F3F1FBB2021F0EB2DF0E03196EA
S1132CE002C0E0E0F0E02E0F3F1FE12FF0E02E17CE
S1132CF03F071CF4121B212F01C020E08E2D887188
S1132D0059F4F601822F30E2882319F0319381506F
S1132D10FBCFC20ED11C20E0992329F0D6019C934D
S1132D20F60131966F0151110BC0F601822F90E329
S1132D30882319F091938150FBCFC20ED11C20E05F
S1132D400F2D060F9A81342F307144FF03C0913345
S1132D5009F40150101624F4093018F008E001C0F9
S1132D6001E0AB0177FF02C040E050E0FB01E41B4F
S1132D70F50BA1E0B0E0AC0FBD1FEA0FFB1F8EE224
S1132D80A82E4B01801A91080B2D10E01195019586
S1132D9011094F3FBFEF5B0721F4D601AC921196A6
S1132DA06D01641775072CF08416950614F481815F
S1132DB001C080E3415051093196D60111967D013D
S1132DC04017510724F0D6018C936701E2CF6417B2
S1132DD0750739F4963320F4953319F4311101C091
S1132DE081E3F6018083F701822F90E2882319F0B2
S1132DF091938150FBCFF701E20FF11D108280E027
S1132E0090E02996ECE00C94BF18283008F027E0F5
S1132E103327DA01990F311D87FD91600096610512
S1132E20710539F432602E5F3D9330E32A95E1F762
S1132E3008959F3F30F080387105610509F03C5FCB
S1132E403C5F3D93913008F08068911DDF93CF93F0
S1132E501F930F93FF92EF92192F987F9695E92F66
S1132E6096959695E90FFF27EE53FF4F9927332741
S1132E70EE24FF24A701E70105900894079428F4A1
S1132E80360FE71EF81E491F511D660F771F881F56
S1132E90991F0694A1F70590079428F4E70EF81EED
S1132EA0491F561FC11D770F881F991F661F06945F
S1132EB0A1F70590079428F4F80E491F561FC71F61
S1132EC0D11D880F991F661F771F0694A1F70590DF
S1132ED0079420F4490F561FC71FD81F990F661F68
S1132EE0771F881F0694A9F784911095177041F0F5
S1132EF0D695C79557954795F794E7941A95C1F7D2
S1132F00E8E6F0E0689415901591359165919591F6
S1132F1005907FE27395E118F10A430B560BC90B38
S1132F20D009C0F7E10CF11E431F561FC91FD01D65
S1132F307EF4703311F48A95E6CFE894015030F0B2
S1132F40080F0AF40027021708F4202F2395022FF4
S1132F507A3328F079E37D932A95E9F710C07D93BD
S1132F602A9589F60694979567953795179517943A
S1132F70E118F10A430B560BC90BD00998F02395BD
S1132F807E9173957A3308F070E37C932013B8F73D
S1132F907E9170617D9330F0839571E37D9370E34E
S1132FA02A95E1F71124EF90FF900F911F91CF9193
S1132FB0DF91992787FD90950895FC010590615054
S1132FC070400110D8F7809590958E0F9F1F08953B
S1132FD0FC016150704001900110D8F780959095E4
S1132FE08E0F9F1F0895DC01FC01672F71917723D9
S1132FF0E1F7329704C07C916D9370836291AE17B0
S1133000BF07C8F308950F931F93CF93DF93FB017A
S1133010238121FD03C08FEF9FEF2CC022FF16C038
S113302046815781248135814217530744F4A08196
S1133030B1819D012F5F3F4F318320838C93268183
S113304037812F5F3F4F3783268314C08B01EC01F8
S1133050FB010084F185E02D0995892BE1F6D80167
S113306016968D919C911797019617969C938E9323
S11330701697CE01DF91CF911F910F910895FA0118
S1133080AA27283051F1203181F1E8946F936E7FA3
S11330906E5F7F4F8F4F9F4FAF4FB1E03ED0B4E094
S11330A03CD0670F781F891F9A1FA11D680F791FD5
S11330B08A1F911DA11D6A0F711D811D911DA11DE6
S11330C020D009F468943F912AE0269F11243019F6
S11330D0305D3193DEF6CF010895462F4770405D91
S11330E04193B3E00FD0C9F7F6CF462F4F70405D40
S11330F04A3318F0495D31FD4052419302D0A9F79B
S1133100EACFB4E0A6959795879577956795BA9594
S1133110C9F700976105710508959B01AC010A2E5A
S113312006945795479537952795BA95C9F7620F31
S1133130731F841F951FA01D08952F923F924F92D5
S11331405F926F927F928F929F92AF92BF92CF9233
S1133150DF92EF92FF920F931F93CF93DF93CDB73C
S1133160DEB7CA1BDB0B0FB6F894DEBF0FBECDBFB4
S113317009942A88398848885F846E847D848C8485
S11331809B84AA84B984C884DF80EE80FD800C818E
S11331901B81AA81B981CE0FD11D0FB6F894DEBF71
S10F31A00FBECDBFED010895F894FFCFE1
S11331AC256D01020000C03F0000803F0000484430
S11331BC3F1B8000800A0D00672F636D33006C6227
S11331CC2F67616C00536F6C6964205347203A007D
S11331DC53616D706C65207074203A0050533A2022
S11331EC2520005765696768743A20284B472920C5
S11331FC004241434B00454E5445520050524556F3
S113320C2E004E4558540053616D706C6520706FE0
S113321C696E740053657420536F6C696420534752
S113322C005A65726F004D6561737572656D656EDC
S113323C7420547970650053657420556E697473E9
S113324C00426174746572792053746174757300EF
S113325C536F6C69642053473A00536F6C69642D47
S113326C736720736574204F4B210053657420746D
S113327C6F207A65726F3A00506C73206D616B65C8
S113328C207375726520746865006275636B657470
S113329C20697320656D7074792E005363616C65BD
S11332AC205A45524F207365742E002520536F6CA1
S11332BC696473004D6561737572656D656E742018
S11332CC747970653A00536C757272792064656E0A
S11332DC7369747900496D70657269616C20286C2E
S11332EC622F67616C2900556E6974733A00476FDD
S11332FC6F642063686F696365210041726520798E
S113330C6F7520737572653F00556E697473207305
S113331C656C65637465643A00496D7065726961C6
S113332C6C20756E697473004D6574726963004D1D
S113333C65747269632028672F636D3329005365A4
S113334C6C6563740053616D706C652070743A0025
S113335C53703A202564204F4B21004261747465EC
S107336C72793A0034
S9030000FC
